{
  "_format": "hh-sol-artifact-1",
  "contractName": "TransparentCharity",
  "sourceName": "contracts/TransparentCharity.sol",
  "abi": [
    {
      "anonymous": false,
      "inputs": [
        {
          "indexed": true,
          "internalType": "uint256",
          "name": "projectId",
          "type": "uint256"
        },
        {
          "indexed": false,
          "internalType": "bool",
          "name": "isActive",
          "type": "bool"
        }
      ],
      "name": "CharityProjectUpdated",
      "type": "event"
    },
    {
      "anonymous": false,
      "inputs": [
        {
          "indexed": true,
          "internalType": "address",
          "name": "donor",
          "type": "address"
        },
        {
          "indexed": true,
          "internalType": "uint256",
          "name": "projectId",
          "type": "uint256"
        },
        {
          "indexed": false,
          "internalType": "uint256",
          "name": "amount",
          "type": "uint256"
        }
      ],
      "name": "DonationMade",
      "type": "event"
    },
    {
      "anonymous": false,
      "inputs": [
        {
          "indexed": false,
          "internalType": "address",
          "name": "donor",
          "type": "address"
        },
        {
          "indexed": true,
          "internalType": "uint256",
          "name": "projectId",
          "type": "uint256"
        },
        {
          "indexed": false,
          "internalType": "uint256",
          "name": "amount",
          "type": "uint256"
        }
      ],
      "name": "FundsDepositedToBeneficiary",
      "type": "event"
    },
    {
      "anonymous": false,
      "inputs": [
        {
          "indexed": false,
          "internalType": "address",
          "name": "donor",
          "type": "address"
        },
        {
          "indexed": false,
          "internalType": "uint256",
          "name": "amount",
          "type": "uint256"
        }
      ],
      "name": "FundsRefunded",
      "type": "event"
    },
    {
      "anonymous": false,
      "inputs": [
        {
          "indexed": true,
          "internalType": "address",
          "name": "beneficiary",
          "type": "address"
        },
        {
          "indexed": true,
          "internalType": "uint256",
          "name": "projectId",
          "type": "uint256"
        }
      ],
      "name": "ProjectApproved",
      "type": "event"
    },
    {
      "anonymous": false,
      "inputs": [
        {
          "indexed": false,
          "internalType": "address",
          "name": "beneficiary",
          "type": "address"
        },
        {
          "indexed": false,
          "internalType": "uint256",
          "name": "amount",
          "type": "uint256"
        }
      ],
      "name": "TokenSpentInStore",
      "type": "event"
    },
    {
      "anonymous": false,
      "inputs": [
        {
          "indexed": true,
          "internalType": "address",
          "name": "beneficiary",
          "type": "address"
        },
        {
          "indexed": false,
          "internalType": "uint256",
          "name": "tokenAmount",
          "type": "uint256"
        }
      ],
      "name": "TokensAllocatedToBeneficiary",
      "type": "event"
    },
    {
      "anonymous": false,
      "inputs": [
        {
          "indexed": true,
          "internalType": "address",
          "name": "storeOwner",
          "type": "address"
        },
        {
          "indexed": false,
          "internalType": "uint256",
          "name": "tokenAmount",
          "type": "uint256"
        }
      ],
      "name": "TokensExchangedForMoney",
      "type": "event"
    },
    {
      "inputs": [
        {
          "internalType": "string",
          "name": "productId",
          "type": "string"
        },
        {
          "internalType": "string",
          "name": "productName",
          "type": "string"
        },
        {
          "internalType": "uint256",
          "name": "price",
          "type": "uint256"
        }
      ],
      "name": "addProduct",
      "outputs": [],
      "stateMutability": "nonpayable",
      "type": "function"
    },
    {
      "inputs": [
        {
          "internalType": "uint256",
          "name": "projectId",
          "type": "uint256"
        },
        {
          "internalType": "bool",
          "name": "approve",
          "type": "bool"
        }
      ],
      "name": "approveBeneficiaryProject",
      "outputs": [],
      "stateMutability": "nonpayable",
      "type": "function"
    },
    {
      "inputs": [],
      "name": "c",
      "outputs": [
        {
          "internalType": "string",
          "name": "OrgName",
          "type": "string"
        },
        {
          "internalType": "address",
          "name": "OrgAddress",
          "type": "address"
        },
        {
          "internalType": "string",
          "name": "Desc",
          "type": "string"
        },
        {
          "internalType": "uint256",
          "name": "orgBalance",
          "type": "uint256"
        }
      ],
      "stateMutability": "view",
      "type": "function"
    },
    {
      "inputs": [
        {
          "internalType": "uint256",
          "name": "projectId",
          "type": "uint256"
        }
      ],
      "name": "checkProjectCompletion",
      "outputs": [],
      "stateMutability": "nonpayable",
      "type": "function"
    },
    {
      "inputs": [],
      "name": "cooperativeStore",
      "outputs": [
        {
          "internalType": "string",
          "name": "storeName",
          "type": "string"
        },
        {
          "internalType": "address payable",
          "name": "storeOwner",
          "type": "address"
        },
        {
          "internalType": "uint256",
          "name": "balance",
          "type": "uint256"
        }
      ],
      "stateMutability": "view",
      "type": "function"
    },
    {
      "inputs": [
        {
          "internalType": "string",
          "name": "_name",
          "type": "string"
        },
        {
          "internalType": "string",
          "name": "_rescueInformation",
          "type": "string"
        }
      ],
      "name": "createBeneficiaryAccount",
      "outputs": [],
      "stateMutability": "nonpayable",
      "type": "function"
    },
    {
      "inputs": [
        {
          "internalType": "string",
          "name": "_title",
          "type": "string"
        },
        {
          "internalType": "string",
          "name": "_desc",
          "type": "string"
        },
        {
          "internalType": "string",
          "name": "_image",
          "type": "string"
        },
        {
          "internalType": "uint256",
          "name": "_goalAmount",
          "type": "uint256"
        }
      ],
      "name": "createCharityProject",
      "outputs": [
        {
          "internalType": "uint256",
          "name": "",
          "type": "uint256"
        }
      ],
      "stateMutability": "nonpayable",
      "type": "function"
    },
    {
      "inputs": [
        {
          "internalType": "string",
          "name": "_storeName",
          "type": "string"
        }
      ],
      "name": "createCooperativeStore",
      "outputs": [],
      "stateMutability": "nonpayable",
      "type": "function"
    },
    {
      "inputs": [
        {
          "internalType": "string",
          "name": "_name",
          "type": "string"
        }
      ],
      "name": "createDonorAccount",
      "outputs": [],
      "stateMutability": "nonpayable",
      "type": "function"
    },
    {
      "inputs": [
        {
          "internalType": "string",
          "name": "orgName",
          "type": "string"
        },
        {
          "internalType": "string",
          "name": "description",
          "type": "string"
        }
      ],
      "name": "createOrganization",
      "outputs": [],
      "stateMutability": "nonpayable",
      "type": "function"
    },
    {
      "inputs": [
        {
          "internalType": "uint256",
          "name": "amount",
          "type": "uint256"
        }
      ],
      "name": "depositFunds",
      "outputs": [],
      "stateMutability": "payable",
      "type": "function"
    },
    {
      "inputs": [
        {
          "internalType": "uint256",
          "name": "projectId",
          "type": "uint256"
        }
      ],
      "name": "donateToProject",
      "outputs": [],
      "stateMutability": "payable",
      "type": "function"
    },
    {
      "inputs": [],
      "name": "getAllProducts",
      "outputs": [
        {
          "components": [
            {
              "internalType": "string",
              "name": "productId",
              "type": "string"
            },
            {
              "internalType": "string",
              "name": "productName",
              "type": "string"
            },
            {
              "internalType": "uint256",
              "name": "price",
              "type": "uint256"
            }
          ],
          "internalType": "struct TransparentCharity.Product[]",
          "name": "",
          "type": "tuple[]"
        }
      ],
      "stateMutability": "view",
      "type": "function"
    },
    {
      "inputs": [],
      "name": "getApprovedProjects",
      "outputs": [
        {
          "components": [
            {
              "internalType": "address payable",
              "name": "beneficiary",
              "type": "address"
            },
            {
              "internalType": "string",
              "name": "name",
              "type": "string"
            },
            {
              "internalType": "string",
              "name": "title",
              "type": "string"
            },
            {
              "internalType": "string",
              "name": "desc",
              "type": "string"
            },
            {
              "internalType": "string",
              "name": "image",
              "type": "string"
            },
            {
              "internalType": "uint256",
              "name": "goalAmount",
              "type": "uint256"
            },
            {
              "internalType": "uint256",
              "name": "currentAmount",
              "type": "uint256"
            },
            {
              "internalType": "bool",
              "name": "isActive",
              "type": "bool"
            },
            {
              "internalType": "address[]",
              "name": "donators",
              "type": "address[]"
            },
            {
              "internalType": "uint256[]",
              "name": "donations",
              "type": "uint256[]"
            }
          ],
          "internalType": "struct TransparentCharity.CharityProject[]",
          "name": "",
          "type": "tuple[]"
        }
      ],
      "stateMutability": "view",
      "type": "function"
    },
    {
      "inputs": [],
      "name": "getBeneficiaryBalance",
      "outputs": [
        {
          "internalType": "uint256",
          "name": "",
          "type": "uint256"
        }
      ],
      "stateMutability": "view",
      "type": "function"
    },
    {
      "inputs": [],
      "name": "getBeneficiaryDetails",
      "outputs": [
        {
          "internalType": "string",
          "name": "",
          "type": "string"
        },
        {
          "internalType": "string",
          "name": "",
          "type": "string"
        },
        {
          "internalType": "address",
          "name": "",
          "type": "address"
        },
        {
          "internalType": "uint256",
          "name": "",
          "type": "uint256"
        }
      ],
      "stateMutability": "view",
      "type": "function"
    },
    {
      "inputs": [],
      "name": "getBeneficiaryTransactionHistory",
      "outputs": [
        {
          "internalType": "uint256[]",
          "name": "",
          "type": "uint256[]"
        }
      ],
      "stateMutability": "view",
      "type": "function"
    },
    {
      "inputs": [],
      "name": "getCharityProjects",
      "outputs": [
        {
          "components": [
            {
              "internalType": "address payable",
              "name": "beneficiary",
              "type": "address"
            },
            {
              "internalType": "string",
              "name": "name",
              "type": "string"
            },
            {
              "internalType": "string",
              "name": "title",
              "type": "string"
            },
            {
              "internalType": "string",
              "name": "desc",
              "type": "string"
            },
            {
              "internalType": "string",
              "name": "image",
              "type": "string"
            },
            {
              "internalType": "uint256",
              "name": "goalAmount",
              "type": "uint256"
            },
            {
              "internalType": "uint256",
              "name": "currentAmount",
              "type": "uint256"
            },
            {
              "internalType": "bool",
              "name": "isActive",
              "type": "bool"
            },
            {
              "internalType": "address[]",
              "name": "donators",
              "type": "address[]"
            },
            {
              "internalType": "uint256[]",
              "name": "donations",
              "type": "uint256[]"
            }
          ],
          "internalType": "struct TransparentCharity.CharityProject[]",
          "name": "",
          "type": "tuple[]"
        }
      ],
      "stateMutability": "view",
      "type": "function"
    },
    {
      "inputs": [],
      "name": "getCooperativeStoreDetails",
      "outputs": [
        {
          "internalType": "string",
          "name": "storeName",
          "type": "string"
        },
        {
          "internalType": "address payable",
          "name": "storeOwner",
          "type": "address"
        },
        {
          "internalType": "uint256",
          "name": "balance",
          "type": "uint256"
        },
        {
          "internalType": "string[]",
          "name": "productIds",
          "type": "string[]"
        }
      ],
      "stateMutability": "view",
      "type": "function"
    },
    {
      "inputs": [],
      "name": "getDonorAccountBalance",
      "outputs": [
        {
          "internalType": "uint256",
          "name": "",
          "type": "uint256"
        }
      ],
      "stateMutability": "view",
      "type": "function"
    },
    {
      "inputs": [],
      "name": "getDonorDetails",
      "outputs": [
        {
          "internalType": "string",
          "name": "",
          "type": "string"
        },
        {
          "internalType": "uint256",
          "name": "",
          "type": "uint256"
        },
        {
          "internalType": "address",
          "name": "",
          "type": "address"
        }
      ],
      "stateMutability": "view",
      "type": "function"
    },
    {
      "inputs": [],
      "name": "getDonorTransactionHistory",
      "outputs": [
        {
          "internalType": "uint256[]",
          "name": "",
          "type": "uint256[]"
        }
      ],
      "stateMutability": "view",
      "type": "function"
    },
    {
      "inputs": [
        {
          "internalType": "string",
          "name": "productId",
          "type": "string"
        }
      ],
      "name": "getProduct",
      "outputs": [
        {
          "components": [
            {
              "internalType": "string",
              "name": "productId",
              "type": "string"
            },
            {
              "internalType": "string",
              "name": "productName",
              "type": "string"
            },
            {
              "internalType": "uint256",
              "name": "price",
              "type": "uint256"
            }
          ],
          "internalType": "struct TransparentCharity.Product",
          "name": "",
          "type": "tuple"
        }
      ],
      "stateMutability": "view",
      "type": "function"
    },
    {
      "inputs": [
        {
          "internalType": "uint256",
          "name": "projectId",
          "type": "uint256"
        }
      ],
      "name": "getProjectDonators",
      "outputs": [
        {
          "internalType": "address[]",
          "name": "",
          "type": "address[]"
        }
      ],
      "stateMutability": "view",
      "type": "function"
    },
    {
      "inputs": [
        {
          "internalType": "uint256",
          "name": "projectId",
          "type": "uint256"
        }
      ],
      "name": "getProjectStatus",
      "outputs": [
        {
          "internalType": "string",
          "name": "",
          "type": "string"
        },
        {
          "internalType": "string",
          "name": "",
          "type": "string"
        },
        {
          "internalType": "string",
          "name": "",
          "type": "string"
        },
        {
          "internalType": "string",
          "name": "",
          "type": "string"
        },
        {
          "internalType": "uint256",
          "name": "",
          "type": "uint256"
        },
        {
          "internalType": "uint256",
          "name": "",
          "type": "uint256"
        },
        {
          "internalType": "address",
          "name": "",
          "type": "address"
        },
        {
          "internalType": "bool",
          "name": "",
          "type": "bool"
        }
      ],
      "stateMutability": "view",
      "type": "function"
    },
    {
      "inputs": [
        {
          "internalType": "string",
          "name": "productId",
          "type": "string"
        }
      ],
      "name": "spendTokens",
      "outputs": [],
      "stateMutability": "payable",
      "type": "function"
    },
    {
      "inputs": [
        {
          "internalType": "string",
          "name": "_rescueInformation",
          "type": "string"
        }
      ],
      "name": "updateRescueInformation",
      "outputs": [],
      "stateMutability": "nonpayable",
      "type": "function"
    }
  ],
  "bytecode": "0x608060405234801561001057600080fd5b50613939806100206000396000f3fe60806040526004361061019c5760003560e01c80639675c009116100ec578063c32905a51161008a578063cd076cca11610064578063cd076cca146104a8578063d4af9c1f146104bd578063da29b34f146104d2578063f28ea1c1146104f257600080fd5b8063c32905a51461044e578063c3da42b814610463578063c9a4fa741461048857600080fd5b8063a511b071116100c6578063a511b071146103b8578063aac0b47f146103e5578063abc0e17514610409578063b2c5cc071461042957600080fd5b80639675c009146103405780639fb7667414610374578063a411ef201461039857600080fd5b806356adb06f1161015957806368111cce1161013357806368111cce146102b957806378732593146102e657806383357c041461030657806394f9413f1461032b57600080fd5b806356adb06f146102715780635b507b44146102845780635d38f563146102a657600080fd5b806302ee3a52146101a1578063057323aa146101cc5780631281ddab146101ee5780633b76594d14610210578063461b7a1d1461022357806352d09c5114610243575b600080fd5b3480156101ad57600080fd5b506101b6610512565b6040516101c39190612f6b565b60405180910390f35b3480156101d857600080fd5b506101ec6101e7366004613070565b6107ee565b005b3480156101fa57600080fd5b5061020361086d565b6040516101c39190613121565b6101ec61021e366004613255565b610d1d565b34801561022f57600080fd5b506101ec61023e366004613255565b610dae565b34801561024f57600080fd5b5061026361025e36600461326e565b610e90565b6040519081526020016101c3565b6101ec61027f366004613255565b6110de565b34801561029057600080fd5b506102996114b3565b6040516101c391906132fe565b6101ec6102b4366004613070565b611553565b3480156102c557600080fd5b506102d96102d4366004613070565b6117b1565b6040516101c39190613318565b3480156102f257600080fd5b506101ec610301366004613070565b611934565b34801561031257600080fd5b5061031b611989565b6040516101c3949392919061332b565b34801561033757600080fd5b50610263611b19565b34801561034c57600080fd5b5061036061035b366004613255565b611b6d565b6040516101c39897969594939291906133b7565b34801561038057600080fd5b50610389611e52565b6040516101c39392919061343a565b3480156103a457600080fd5b506101ec6103b3366004613468565b611efa565b3480156103c457600080fd5b506103d86103d3366004613255565b611fdb565b6040516101c391906134cc565b3480156103f157600080fd5b506103fa6120c9565b6040516101c393929190613519565b34801561041557600080fd5b506101ec61042436600461354c565b6121c6565b34801561043557600080fd5b5061043e612337565b6040516101c39493929190613581565b34801561045a57600080fd5b506102036124ce565b34801561046f57600080fd5b50610478612875565b6040516101c394939291906135c3565b34801561049457600080fd5b506101ec6104a3366004613070565b6129b0565b3480156104b457600080fd5b50610263612a84565b3480156104c957600080fd5b50610299612ad8565b3480156104de57600080fd5b506101ec6104ed366004613468565b612b76565b3480156104fe57600080fd5b506101ec61050d366004613609565b612c3f565b600b5460609060079060008167ffffffffffffffff81111561053657610536612fcd565b60405190808252806020026020018201604052801561058b57816020015b61057860405180606001604052806060815260200160608152602001600081525090565b8152602001906001900390816105545790505b5090506000805b838110156107e45760008560040182815481106105b1576105b1613676565b9060005260206000200180546105c69061368c565b80601f01602080910402602001604051908101604052809291908181526020018280546105f29061368c565b801561063f5780601f106106145761010080835404028352916020019161063f565b820191906000526020600020905b81548152906001019060200180831161062257829003601f168201915b505050505090506000866003018260405161065a91906136c6565b90815260200160405180910390206040518060600160405290816000820180546106839061368c565b80601f01602080910402602001604051908101604052809291908181526020018280546106af9061368c565b80156106fc5780601f106106d1576101008083540402835291602001916106fc565b820191906000526020600020905b8154815290600101906020018083116106df57829003601f168201915b505050505081526020016001820180546107159061368c565b80601f01602080910402602001604051908101604052809291908181526020018280546107419061368c565b801561078e5780601f106107635761010080835404028352916020019161078e565b820191906000526020600020905b81548152906001019060200180831161077157829003601f168201915b505050505081526020016002820154815250509050808585815181106107b6576107b6613676565b602002602001018190525083806107cc906136f8565b945050505080806107dc906136f8565b915050610592565b5090949350505050565b6008546001600160a01b0316156108445760405162461bcd60e51b815260206004820152601560248201527429ba37b9329030b63932b0b23c9032bc34b9ba399760591b60448201526064015b60405180910390fd5b60076108508282613760565b5050600880546001600160a01b0319163390811790915531600955565b60606000805b600c548110156108cc57600c818154811061089057610890613676565b600091825260209091206007600a90920201015460ff16156108ba57816108b6816136f8565b9250505b806108c4816136f8565b915050610873565b5060008167ffffffffffffffff8111156108e8576108e8612fcd565b60405190808252806020026020018201604052801561092157816020015b61090e612dc3565b8152602001906001900390816109065790505b5090506000805b600c54811015610d1457600c818154811061094557610945613676565b600091825260209091206007600a90920201015460ff1615610d0257600c818154811061097457610974613676565b6000918252602091829020604080516101408101909152600a9092020180546001600160a01b0316825260018101805492939192918401916109b59061368c565b80601f01602080910402602001604051908101604052809291908181526020018280546109e19061368c565b8015610a2e5780601f10610a0357610100808354040283529160200191610a2e565b820191906000526020600020905b815481529060010190602001808311610a1157829003601f168201915b50505050508152602001600282018054610a479061368c565b80601f0160208091040260200160405190810160405280929190818152602001828054610a739061368c565b8015610ac05780601f10610a9557610100808354040283529160200191610ac0565b820191906000526020600020905b815481529060010190602001808311610aa357829003601f168201915b50505050508152602001600382018054610ad99061368c565b80601f0160208091040260200160405190810160405280929190818152602001828054610b059061368c565b8015610b525780601f10610b2757610100808354040283529160200191610b52565b820191906000526020600020905b815481529060010190602001808311610b3557829003601f168201915b50505050508152602001600482018054610b6b9061368c565b80601f0160208091040260200160405190810160405280929190818152602001828054610b979061368c565b8015610be45780601f10610bb957610100808354040283529160200191610be4565b820191906000526020600020905b815481529060010190602001808311610bc757829003601f168201915b5050505050815260200160058201548152602001600682015481526020016007820160009054906101000a900460ff1615151515815260200160088201805480602002602001604051908101604052809291908181526020018280548015610c7557602002820191906000526020600020905b81546001600160a01b03168152600190910190602001808311610c57575b5050505050815260200160098201805480602002602001604051908101604052809291908181526020018280548015610ccd57602002820191906000526020600020905b815481526020019060010190808311610cb9575b505050505081525050838381518110610ce857610ce8613676565b60200260200101819052508180610cfe906136f8565b9250505b80610d0c816136f8565b915050610928565b50909392505050565b336000818152600460205260409020600201546001600160a01b031614610d565760405162461bcd60e51b815260040161083b90613820565b604051339082156108fc029083906000818181858888f19350505050158015610d83573d6000803e3d6000fd5b503360009081526004602052604081206001018054839290610da6908490613862565b909155505050565b600c548110610df45760405162461bcd60e51b8152602060048201526012602482015271125b9d985b1a59081c1c9bda9958dd08125160721b604482015260640161083b565b6000600c8281548110610e0957610e09613676565b60009182526020909120600a90910201600781015490915060ff16610e705760405162461bcd60e51b815260206004820152601b60248201527f50726f6a65637420697320616c726561647920696e6163746976650000000000604482015260640161083b565b8060050154816006015403610e8c5760078101805460ff191690555b5050565b3360008181526006602052604081206002015490916001600160a01b0390911614610ecd5760405162461bcd60e51b815260040161083b9061387b565b610ed5612dc3565b3360009081526006602052604090208054610eef9061368c565b80601f0160208091040260200160405190810160405280929190818152602001828054610f1b9061368c565b8015610f685780601f10610f3d57610100808354040283529160200191610f68565b820191906000526020600020905b815481529060010190602001808311610f4b57829003601f168201915b50505050506020820190815260408201879052606082018690526080820185905233825260a08201849052600060c0830181905260e08301819052600c8054600181018255915282517fdf6966c971051c3d54ec59162606531493a51404a002842f56009d7e5cf4a8c7600a830290810180546001600160a01b0319166001600160a01b039093169290921782559251919284927fdf6966c971051c3d54ec59162606531493a51404a002842f56009d7e5cf4a8c89091019061102b9082613760565b50604082015160028201906110409082613760565b50606082015160038201906110559082613760565b506080820151600482019061106a9082613760565b5060a0820151600582015560c0820151600682015560e082015160078201805460ff191691151591909117905561010082015180516110b3916008840191602090910190612e21565b5061012082015180516110d0916009840191602090910190612e86565b509198975050505050505050565b336000818152600460205260409020600201546001600160a01b0316146111175760405162461bcd60e51b815260040161083b90613820565b600c543490821061113a5760405162461bcd60e51b815260040161083b906138c3565b600c828154811061114d5761114d613676565b600091825260209091206007600a90920201015460ff166111a95760405162461bcd60e51b8152602060048201526016602482015275283937b532b1ba1034b9903737ba1030b1ba34bb329760511b604482015260640161083b565b6000811161120c5760405162461bcd60e51b815260206004820152602a60248201527f446f6e6174696f6e20616d6f756e74206d7573742062652067726561746572206044820152693a3430b7103d32b9379760b11b606482015260840161083b565b336000908152600460205260409020600101548111156112645760405162461bcd60e51b815260206004820152601360248201527224b739bab33334b1b4b2b73a10333ab732399760691b604482015260640161083b565b6000600c838154811061127957611279613676565b600091825260208220600a90910201546040516001600160a01b039091169184919081818185875af1925050503d80600081146112d2576040519150601f19603f3d011682016040523d82523d6000602084013e6112d7565b606091505b50509050801561141b5733600090815260046020526040812060010180548492906113039084906138f0565b909155505033600090815260046020908152604080832086845260030190915281208054849290611335908490613862565b9250508190555081600c848154811061135057611350613676565b90600052602060002090600a020160060160008282546113709190613862565b9091555050600c80548490811061138957611389613676565b600091825260208083206008600a9093020191909101805460018101825590835291200180546001600160a01b03191633179055600c8054849081106113d1576113d1613676565b600091825260208083206009600a90930201919091018054600181810183559184528284200185905533835260048083526040842001805491820181558352912001829055611477565b60405162461bcd60e51b815260206004820152602b60248201527f4661696c656420746f2073656e6420646f6e6174696f6e20746f20746865206260448201526a32b732b334b1b4b0b93c9760a91b606482015260840161083b565b604051828152839033907fd97bcdf12fa1d5342fc942da5eadf35c7597f34f8da7274c2b0d2ad9798426799060200160405180910390a3505050565b336000818152600660205260409020600201546060916001600160a01b03909116146114f15760405162461bcd60e51b815260040161083b9061387b565b336000908152600660209081526040918290206004018054835181840281018401909452808452909183018282801561154957602002820191906000526020600020905b815481526020019060010190808311611535575b5050505050905090565b336000818152600660205260409020600201546001600160a01b03161461158c5760405162461bcd60e51b815260040161083b9061387b565b60006007600301826040516115a191906136c6565b9081526020016040518091039020600201549050600081116115f75760405162461bcd60e51b815260206004820152600f60248201526e125b9d985b1a59081c1c9bd91d58dd608a1b604482015260640161083b565b336000908152600660205260409020600301548111156116505760405162461bcd60e51b815260206004820152601460248201527324b739bab33334b1b4b2b73a1032ba3432b9399760611b604482015260640161083b565b6008546040516000916001600160a01b03169034908381818185875af1925050503d806000811461169d576040519150601f19603f3d011682016040523d82523d6000602084013e6116a2565b606091505b5050905080156117195733600090815260066020526040812060030180543492906116ce9084906138f0565b909155505033600090815260066020908152604082206004018054600181018255908352908220349101819055600980549192909161170e908490613862565b909155506117749050565b60405162461bcd60e51b815260206004820152602a60248201527f4661696c656420746f2073656e64207061796d656e7420746f2074686520737460448201526937b9329037bbb732b91760b11b606482015260840161083b565b604080513381523460208201527f5c1db759def77e3af13dc4684dfa2bc3e9d07db3f46613c454d327ed70bc6be7910160405180910390a1505050565b6117d560405180606001604052806060815260200160608152602001600081525090565b604051600a906117e69084906136c6565b908152602001604051809103902060405180606001604052908160008201805461180f9061368c565b80601f016020809104026020016040519081016040528092919081815260200182805461183b9061368c565b80156118885780601f1061185d57610100808354040283529160200191611888565b820191906000526020600020905b81548152906001019060200180831161186b57829003601f168201915b505050505081526020016001820180546118a19061368c565b80601f01602080910402602001604051908101604052809291908181526020018280546118cd9061368c565b801561191a5780601f106118ef5761010080835404028352916020019161191a565b820191906000526020600020905b8154815290600101906020018083116118fd57829003601f168201915b505050505081526020016002820154815250509050919050565b336000818152600660205260409020600201546001600160a01b03161461196d5760405162461bcd60e51b815260040161083b9061387b565b336000908152600660205260409020600101610e8c8282613760565b600854600954600780546060936000938493869390926001600160a01b03169190600b9084906119b89061368c565b80601f01602080910402602001604051908101604052809291908181526020018280546119e49061368c565b8015611a315780601f10611a0657610100808354040283529160200191611a31565b820191906000526020600020905b815481529060010190602001808311611a1457829003601f168201915b5050505050935080805480602002602001604051908101604052809291908181526020016000905b82821015611b05578382906000526020600020018054611a789061368c565b80601f0160208091040260200160405190810160405280929190818152602001828054611aa49061368c565b8015611af15780601f10611ac657610100808354040283529160200191611af1565b820191906000526020600020905b815481529060010190602001808311611ad457829003601f168201915b505050505081526020019060010190611a59565b505050509050935093509350935090919293565b3360008181526004602052604081206002015490916001600160a01b0390911614611b565760405162461bcd60e51b815260040161083b90613820565b503360009081526004602052604090206001015490565b606080606080600080600080600c805490508910611b9d5760405162461bcd60e51b815260040161083b906138c3565b6000600c8a81548110611bb257611bb2613676565b90600052602060002090600a0201905080600101816002018260030183600401846005015485600601548660000160009054906101000a90046001600160a01b03168760070160009054906101000a900460ff16878054611c129061368c565b80601f0160208091040260200160405190810160405280929190818152602001828054611c3e9061368c565b8015611c8b5780601f10611c6057610100808354040283529160200191611c8b565b820191906000526020600020905b815481529060010190602001808311611c6e57829003601f168201915b50505050509750868054611c9e9061368c565b80601f0160208091040260200160405190810160405280929190818152602001828054611cca9061368c565b8015611d175780601f10611cec57610100808354040283529160200191611d17565b820191906000526020600020905b815481529060010190602001808311611cfa57829003601f168201915b50505050509650858054611d2a9061368c565b80601f0160208091040260200160405190810160405280929190818152602001828054611d569061368c565b8015611da35780601f10611d7857610100808354040283529160200191611da3565b820191906000526020600020905b815481529060010190602001808311611d8657829003601f168201915b50505050509550848054611db69061368c565b80601f0160208091040260200160405190810160405280929190818152602001828054611de29061368c565b8015611e2f5780601f10611e0457610100808354040283529160200191611e2f565b820191906000526020600020905b815481529060010190602001808311611e1257829003601f168201915b505050505094509850985098509850985098509850985050919395975091939597565b600780548190611e619061368c565b80601f0160208091040260200160405190810160405280929190818152602001828054611e8d9061368c565b8015611eda5780601f10611eaf57610100808354040283529160200191611eda565b820191906000526020600020905b815481529060010190602001808311611ebd57829003601f168201915b50505050600183015460029093015491926001600160a01b031691905083565b6001546001600160a01b031615611f5f5760405162461bcd60e51b8152602060048201526024808201527f43686172697479206f7267616e697a6174696f6e20616c72656164792065786960448201526339ba399760e11b606482015260840161083b565b60408051608081018252838152336020820181905291810183905290316060820152600080611f8e8582613760565b5060208201516001820180546001600160a01b0319166001600160a01b0390921691909117905560408201516002820190611fc99082613760565b50606082015181600301559050505050565b6060600c8281548110611ff057611ff0613676565b600091825260209091206007600a90920201015460ff166120455760405162461bcd60e51b815260206004820152600f60248201526e125b9d985b1a59081c1c9bda9958dd608a1b604482015260640161083b565b600c828154811061205857612058613676565b90600052602060002090600a02016008018054806020026020016040519081016040528092919081815260200182805480156120bd57602002820191906000526020600020905b81546001600160a01b0316815260019091019060200180831161209f575b50505050509050919050565b3360008181526004602052604081206002015460609282916001600160a01b0316146121075760405162461bcd60e51b815260040161083b90613820565b3360009081526004602052604090206001810154600282015482548392916001600160a01b031690839061213a9061368c565b80601f01602080910402602001604051908101604052809291908181526020018280546121669061368c565b80156121b35780601f10612188576101008083540402835291602001916121b3565b820191906000526020600020905b81548152906001019060200180831161219657829003601f168201915b5050505050925093509350935050909192565b6001546001600160a01b031633146122395760405162461bcd60e51b815260206004820152603060248201527f4f6e6c792043686172697479204f7267616e697a6174696f6e2063616e20636160448201526f3636103a3434b990333ab731ba34b7b760811b606482015260840161083b565b600c54821061225a5760405162461bcd60e51b815260040161083b906138c3565b6000600c838154811061226f5761226f613676565b60009182526020909120600a90910201600781015490915060ff16156122d75760405162461bcd60e51b815260206004820152601a60248201527f50726f6a65637420697320616c7265616479206163746976652e000000000000604482015260640161083b565b81156122ed5760078101805460ff191660011790555b600781015460405184917f697d88de79ee5f279b23d936b354199f508c06e0b3c82b336375fb50c1618ab79161232a9160ff161515815260200190565b60405180910390a2505050565b3360008181526006602052604081206002015460609283929182916001600160a01b039091161461237a5760405162461bcd60e51b815260040161083b9061387b565b336000908152600660205260409020600281015460038201548254839260018401926001600160a01b039091169184906123b39061368c565b80601f01602080910402602001604051908101604052809291908181526020018280546123df9061368c565b801561242c5780601f106124015761010080835404028352916020019161242c565b820191906000526020600020905b81548152906001019060200180831161240f57829003601f168201915b5050505050935082805461243f9061368c565b80601f016020809104026020016040519081016040528092919081815260200182805461246b9061368c565b80156124b85780601f1061248d576101008083540402835291602001916124b8565b820191906000526020600020905b81548152906001019060200180831161249b57829003601f168201915b5050505050925094509450945094505090919293565b6060600c805480602002602001604051908101604052809291908181526020016000905b8282101561286c576000848152602090819020604080516101408101909152600a850290910180546001600160a01b03168252600181018054929391929184019161253c9061368c565b80601f01602080910402602001604051908101604052809291908181526020018280546125689061368c565b80156125b55780601f1061258a576101008083540402835291602001916125b5565b820191906000526020600020905b81548152906001019060200180831161259857829003601f168201915b505050505081526020016002820180546125ce9061368c565b80601f01602080910402602001604051908101604052809291908181526020018280546125fa9061368c565b80156126475780601f1061261c57610100808354040283529160200191612647565b820191906000526020600020905b81548152906001019060200180831161262a57829003601f168201915b505050505081526020016003820180546126609061368c565b80601f016020809104026020016040519081016040528092919081815260200182805461268c9061368c565b80156126d95780601f106126ae576101008083540402835291602001916126d9565b820191906000526020600020905b8154815290600101906020018083116126bc57829003601f168201915b505050505081526020016004820180546126f29061368c565b80601f016020809104026020016040519081016040528092919081815260200182805461271e9061368c565b801561276b5780601f106127405761010080835404028352916020019161276b565b820191906000526020600020905b81548152906001019060200180831161274e57829003601f168201915b5050505050815260200160058201548152602001600682015481526020016007820160009054906101000a900460ff16151515158152602001600882018054806020026020016040519081016040528092919081815260200182805480156127fc57602002820191906000526020600020905b81546001600160a01b031681526001909101906020018083116127de575b505050505081526020016009820180548060200260200160405190810160405280929190818152602001828054801561285457602002820191906000526020600020905b815481526020019060010190808311612840575b505050505081525050815260200190600101906124f2565b50505050905090565b6000805481906128849061368c565b80601f01602080910402602001604051908101604052809291908181526020018280546128b09061368c565b80156128fd5780601f106128d2576101008083540402835291602001916128fd565b820191906000526020600020905b8154815290600101906020018083116128e057829003601f168201915b505050600184015460028501805494956001600160a01b039092169491935091506129279061368c565b80601f01602080910402602001604051908101604052809291908181526020018280546129539061368c565b80156129a05780601f10612975576101008083540402835291602001916129a0565b820191906000526020600020905b81548152906001019060200180831161298357829003601f168201915b5050505050908060030154905084565b3360009081526004602052604090206001015415612a0a5760405162461bcd60e51b815260206004820152601760248201527620b1b1b7bab73a1030b63932b0b23c9032bc34b9ba399760491b604482015260640161083b565b3360008181526004602052604090206002810180546001600160a01b0319168317905590316001820155612a3e8282613760565b5050600580546001810182556000919091527f036b6384b5eca791c62761152d0c79bb0604c104a5fb6f4eb0703f3154bb3db00180546001600160a01b03191633179055565b3360008181526006602052604081206002015490916001600160a01b0390911614612ac15760405162461bcd60e51b815260040161083b9061387b565b503360009081526006602052604090206003015490565b336000818152600460205260409020600201546060916001600160a01b0390911614612b165760405162461bcd60e51b815260040161083b90613820565b33600090815260046020818152604092839020909101805483518184028101840190945280845290918301828280156115495760200282019190600052602060002090815481526020019060010190808311611535575050505050905090565b3360009081526006602052604090208054612b909061368c565b159050612bd95760405162461bcd60e51b815260206004820152601760248201527620b1b1b7bab73a1030b63932b0b23c9032bc34b9ba399760491b604482015260640161083b565b336000908152600660205260409020612bf28382613760565b50336000908152600660205260409020600101612c0f8282613760565b50503360008181526006602052604090206002810180546001600160a01b03191683179055903160039091015550565b6008546001600160a01b03163314612ca95760405162461bcd60e51b815260206004820152602760248201527f4f6e6c792073746f7265206f776e65722063616e2063616c6c207468697320666044820152663ab731ba34b7b760c91b606482015260840161083b565b604051600a90612cba9085906136c6565b908152602001604051809103902060020154600014612d145760405162461bcd60e51b815260206004820152601660248201527550726f6475637420616c72656164792065786973747360501b604482015260640161083b565b604080516060810182528481526020810184905280820183905290518190600a90612d409087906136c6565b90815260405190819003602001902081518190612d5d9082613760565b5060208201516001820190612d729082613760565b5060409190910151600290910155600b80546001810182556000919091527f0175b7a638427703f0dbe7bb9bbf987a2551717b34e79f33b5b1008d1fa01db901612dbc8582613760565b5050505050565b60405180610140016040528060006001600160a01b0316815260200160608152602001606081526020016060815260200160608152602001600081526020016000815260200160001515815260200160608152602001606081525090565b828054828255906000526020600020908101928215612e76579160200282015b82811115612e7657825182546001600160a01b0319166001600160a01b03909116178255602090920191600190910190612e41565b50612e82929150612ec1565b5090565b828054828255906000526020600020908101928215612e76579160200282015b82811115612e76578251825591602001919060010190612ea6565b5b80821115612e825760008155600101612ec2565b60005b83811015612ef1578181015183820152602001612ed9565b50506000910152565b60008151808452612f12816020860160208601612ed6565b601f01601f19169290920160200192915050565b6000815160608452612f3b6060850182612efa565b905060208301518482036020860152612f548282612efa565b915050604083015160408501528091505092915050565b6000602080830181845280855180835260408601915060408160051b870101925083870160005b82811015612fc057603f19888603018452612fae858351612f26565b94509285019290850190600101612f92565b5092979650505050505050565b634e487b7160e01b600052604160045260246000fd5b600082601f830112612ff457600080fd5b813567ffffffffffffffff8082111561300f5761300f612fcd565b604051601f8301601f19908116603f0116810190828211818310171561303757613037612fcd565b8160405283815286602085880101111561305057600080fd5b836020870160208301376000602085830101528094505050505092915050565b60006020828403121561308257600080fd5b813567ffffffffffffffff81111561309957600080fd5b6130a584828501612fe3565b949350505050565b600081518084526020808501945080840160005b838110156130e65781516001600160a01b0316875295820195908201906001016130c1565b509495945050505050565b600081518084526020808501945080840160005b838110156130e657815187529582019590820190600101613105565b60006020808301818452808551808352604092508286019150828160051b87010184880160005b8381101561324757888303603f19018552815180516001600160a01b0316845261014088820151818a87015261318082870182612efa565b91505087820151858203898701526131988282612efa565b915050606080830151868303828801526131b28382612efa565b92505050608080830151868303828801526131cd8382612efa565b9250505060a080830151818701525060c080830151818701525060e0808301516131fa8288018215159052565b5050610100808301518683038288015261321483826130ad565b92505050610120808301519250858203818701525061323381836130f1565b968901969450505090860190600101613148565b509098975050505050505050565b60006020828403121561326757600080fd5b5035919050565b6000806000806080858703121561328457600080fd5b843567ffffffffffffffff8082111561329c57600080fd5b6132a888838901612fe3565b955060208701359150808211156132be57600080fd5b6132ca88838901612fe3565b945060408701359150808211156132e057600080fd5b506132ed87828801612fe3565b949793965093946060013593505050565b60208152600061331160208301846130f1565b9392505050565b6020815260006133116020830184612f26565b60808152600061333e6080830187612efa565b6001600160a01b038616602084810191909152604084018690528382036060850152845180835282820190600581901b8401830187840160005b838110156133a657601f19878403018552613394838351612efa565b94860194925090850190600101613378565b50909b9a5050505050505050505050565b60006101008083526133cb8184018c612efa565b905082810360208401526133df818b612efa565b905082810360408401526133f3818a612efa565b905082810360608401526134078189612efa565b6080840197909752505060a08101939093526001600160a01b039190911660c0830152151560e090910152949350505050565b60608152600061344d6060830186612efa565b6001600160a01b039490941660208301525060400152919050565b6000806040838503121561347b57600080fd5b823567ffffffffffffffff8082111561349357600080fd5b61349f86838701612fe3565b935060208501359150808211156134b557600080fd5b506134c285828601612fe3565b9150509250929050565b6020808252825182820181905260009190848201906040850190845b8181101561350d5783516001600160a01b0316835292840192918401916001016134e8565b50909695505050505050565b60608152600061352c6060830186612efa565b6020830194909452506001600160a01b0391909116604090910152919050565b6000806040838503121561355f57600080fd5b823591506020830135801515811461357657600080fd5b809150509250929050565b6080815260006135946080830187612efa565b82810360208401526135a68187612efa565b6001600160a01b0395909516604084015250506060015292915050565b6080815260006135d66080830187612efa565b6001600160a01b038616602084015282810360408401526135f78186612efa565b91505082606083015295945050505050565b60008060006060848603121561361e57600080fd5b833567ffffffffffffffff8082111561363657600080fd5b61364287838801612fe3565b9450602086013591508082111561365857600080fd5b5061366586828701612fe3565b925050604084013590509250925092565b634e487b7160e01b600052603260045260246000fd5b600181811c908216806136a057607f821691505b6020821081036136c057634e487b7160e01b600052602260045260246000fd5b50919050565b600082516136d8818460208701612ed6565b9190910192915050565b634e487b7160e01b600052601160045260246000fd5b60006001820161370a5761370a6136e2565b5060010190565b601f82111561375b57600081815260208120601f850160051c810160208610156137385750805b601f850160051c820191505b8181101561375757828155600101613744565b5050505b505050565b815167ffffffffffffffff81111561377a5761377a612fcd565b61378e81613788845461368c565b84613711565b602080601f8311600181146137c357600084156137ab5750858301515b600019600386901b1c1916600185901b178555613757565b600085815260208120601f198616915b828110156137f2578886015182559484019460019091019084016137d3565b50858210156138105787850151600019600388901b60f8161c191681555b5050505050600190811b01905550565b60208082526022908201527f4f6e6c7920646f6e6f722063616e2063616c6c20746869732066756e6374696f604082015261371760f11b606082015260800190565b80820180821115613875576138756136e2565b92915050565b60208082526028908201527f4f6e6c792062656e65666963696172792063616e2063616c6c207468697320666040820152673ab731ba34b7b71760c11b606082015260800190565b60208082526013908201527224b73b30b634b210383937b532b1ba1024a21760691b604082015260600190565b81810381811115613875576138756136e256fea2646970667358221220a55c3191c3fcd71dbaa470d9b3b693a8b79c9c0ad3f59a99529ca648ebec638864736f6c63430008110033",
  "linkReferences": {},
  "deployedLinkReferences": {}
}